{
  "contractName": "Qrollectible",
  "abi": [
    {
      "inputs": [],
      "stateMutability": "nonpayable",
      "type": "constructor"
    },
    {
      "anonymous": false,
      "inputs": [
        {
          "indexed": true,
          "internalType": "address",
          "name": "owner",
          "type": "address"
        },
        {
          "indexed": true,
          "internalType": "address",
          "name": "approved",
          "type": "address"
        },
        {
          "indexed": true,
          "internalType": "uint256",
          "name": "tokenId",
          "type": "uint256"
        }
      ],
      "name": "Approval",
      "type": "event"
    },
    {
      "anonymous": false,
      "inputs": [
        {
          "indexed": true,
          "internalType": "address",
          "name": "owner",
          "type": "address"
        },
        {
          "indexed": true,
          "internalType": "address",
          "name": "operator",
          "type": "address"
        },
        {
          "indexed": false,
          "internalType": "bool",
          "name": "approved",
          "type": "bool"
        }
      ],
      "name": "ApprovalForAll",
      "type": "event"
    },
    {
      "anonymous": false,
      "inputs": [
        {
          "indexed": true,
          "internalType": "address",
          "name": "from",
          "type": "address"
        },
        {
          "indexed": true,
          "internalType": "address",
          "name": "to",
          "type": "address"
        },
        {
          "indexed": true,
          "internalType": "uint256",
          "name": "tokenId",
          "type": "uint256"
        }
      ],
      "name": "Transfer",
      "type": "event"
    },
    {
      "inputs": [
        {
          "internalType": "uint256",
          "name": "",
          "type": "uint256"
        }
      ],
      "name": "Collectibles",
      "outputs": [
        {
          "internalType": "uint256",
          "name": "id",
          "type": "uint256"
        },
        {
          "internalType": "address",
          "name": "recepient",
          "type": "address"
        },
        {
          "internalType": "string",
          "name": "uri",
          "type": "string"
        }
      ],
      "stateMutability": "view",
      "type": "function",
      "constant": true
    },
    {
      "inputs": [
        {
          "internalType": "address",
          "name": "to",
          "type": "address"
        },
        {
          "internalType": "uint256",
          "name": "tokenId",
          "type": "uint256"
        }
      ],
      "name": "approve",
      "outputs": [],
      "stateMutability": "nonpayable",
      "type": "function"
    },
    {
      "inputs": [
        {
          "internalType": "address",
          "name": "owner",
          "type": "address"
        }
      ],
      "name": "balanceOf",
      "outputs": [
        {
          "internalType": "uint256",
          "name": "",
          "type": "uint256"
        }
      ],
      "stateMutability": "view",
      "type": "function",
      "constant": true
    },
    {
      "inputs": [
        {
          "internalType": "uint256",
          "name": "tokenId",
          "type": "uint256"
        }
      ],
      "name": "getApproved",
      "outputs": [
        {
          "internalType": "address",
          "name": "",
          "type": "address"
        }
      ],
      "stateMutability": "view",
      "type": "function",
      "constant": true
    },
    {
      "inputs": [
        {
          "internalType": "address",
          "name": "owner",
          "type": "address"
        },
        {
          "internalType": "address",
          "name": "operator",
          "type": "address"
        }
      ],
      "name": "isApprovedForAll",
      "outputs": [
        {
          "internalType": "bool",
          "name": "",
          "type": "bool"
        }
      ],
      "stateMutability": "view",
      "type": "function",
      "constant": true
    },
    {
      "inputs": [],
      "name": "name",
      "outputs": [
        {
          "internalType": "string",
          "name": "",
          "type": "string"
        }
      ],
      "stateMutability": "view",
      "type": "function",
      "constant": true
    },
    {
      "inputs": [
        {
          "internalType": "uint256",
          "name": "tokenId",
          "type": "uint256"
        }
      ],
      "name": "ownerOf",
      "outputs": [
        {
          "internalType": "address",
          "name": "",
          "type": "address"
        }
      ],
      "stateMutability": "view",
      "type": "function",
      "constant": true
    },
    {
      "inputs": [
        {
          "internalType": "address",
          "name": "from",
          "type": "address"
        },
        {
          "internalType": "address",
          "name": "to",
          "type": "address"
        },
        {
          "internalType": "uint256",
          "name": "tokenId",
          "type": "uint256"
        }
      ],
      "name": "safeTransferFrom",
      "outputs": [],
      "stateMutability": "nonpayable",
      "type": "function"
    },
    {
      "inputs": [
        {
          "internalType": "address",
          "name": "from",
          "type": "address"
        },
        {
          "internalType": "address",
          "name": "to",
          "type": "address"
        },
        {
          "internalType": "uint256",
          "name": "tokenId",
          "type": "uint256"
        },
        {
          "internalType": "bytes",
          "name": "_data",
          "type": "bytes"
        }
      ],
      "name": "safeTransferFrom",
      "outputs": [],
      "stateMutability": "nonpayable",
      "type": "function"
    },
    {
      "inputs": [
        {
          "internalType": "address",
          "name": "operator",
          "type": "address"
        },
        {
          "internalType": "bool",
          "name": "approved",
          "type": "bool"
        }
      ],
      "name": "setApprovalForAll",
      "outputs": [],
      "stateMutability": "nonpayable",
      "type": "function"
    },
    {
      "inputs": [
        {
          "internalType": "bytes4",
          "name": "interfaceId",
          "type": "bytes4"
        }
      ],
      "name": "supportsInterface",
      "outputs": [
        {
          "internalType": "bool",
          "name": "",
          "type": "bool"
        }
      ],
      "stateMutability": "view",
      "type": "function",
      "constant": true
    },
    {
      "inputs": [],
      "name": "symbol",
      "outputs": [
        {
          "internalType": "string",
          "name": "",
          "type": "string"
        }
      ],
      "stateMutability": "view",
      "type": "function",
      "constant": true
    },
    {
      "inputs": [
        {
          "internalType": "address",
          "name": "from",
          "type": "address"
        },
        {
          "internalType": "address",
          "name": "to",
          "type": "address"
        },
        {
          "internalType": "uint256",
          "name": "tokenId",
          "type": "uint256"
        }
      ],
      "name": "transferFrom",
      "outputs": [],
      "stateMutability": "nonpayable",
      "type": "function"
    },
    {
      "inputs": [
        {
          "internalType": "string",
          "name": "uri",
          "type": "string"
        }
      ],
      "name": "createItem",
      "outputs": [
        {
          "internalType": "uint256",
          "name": "",
          "type": "uint256"
        }
      ],
      "stateMutability": "nonpayable",
      "type": "function"
    },
    {
      "inputs": [
        {
          "internalType": "uint256",
          "name": "tokenID",
          "type": "uint256"
        }
      ],
      "name": "tokenURI",
      "outputs": [
        {
          "internalType": "string",
          "name": "",
          "type": "string"
        }
      ],
      "stateMutability": "view",
      "type": "function",
      "constant": true
    }
  ],
  "bytecode": "0x60806040523480156200001157600080fd5b506040518060400160405280600c81526020017f51726f6c6c65637469626c6500000000000000000000000000000000000000008152506040518060400160405280600381526020017f51524f0000000000000000000000000000000000000000000000000000000000815250816000908051906020019062000096929190620000b8565b508060019080519060200190620000af929190620000b8565b505050620001cd565b828054620000c69062000168565b90600052602060002090601f016020900481019282620000ea576000855562000136565b82601f106200010557805160ff191683800117855562000136565b8280016001018555821562000136579182015b828111156200013557825182559160200191906001019062000118565b5b50905062000145919062000149565b5090565b5b80821115620001645760008160009055506001016200014a565b5090565b600060028204905060018216806200018157607f821691505b602082108114156200019857620001976200019e565b5b50919050565b7f4e487b7100000000000000000000000000000000000000000000000000000000600052602260045260246000fd5b61275b80620001dd6000396000f3fe608060405234801561001057600080fd5b50600436106100f55760003560e01c80636352211e11610097578063b88d4fde11610066578063b88d4fde14610296578063c87b56dd146102b2578063d969486f146102e2578063e985e9c514610314576100f5565b80636352211e146101fc57806370a082311461022c57806395d89b411461025c578063a22cb4651461027a576100f5565b8063095ea7b3116100d3578063095ea7b31461017857806323b872dd146101945780633d54eebb146101b057806342842e0e146101e0576100f5565b806301ffc9a7146100fa57806306fdde031461012a578063081812fc14610148575b600080fd5b610114600480360381019061010f9190611ab6565b610344565b604051610121919061219a565b60405180910390f35b610132610426565b60405161013f91906121b5565b60405180910390f35b610162600480360381019061015d9190611b49565b6104b8565b60405161016f9190612133565b60405180910390f35b610192600480360381019061018d9190611a7a565b61053d565b005b6101ae60048036038101906101a99190611974565b610655565b005b6101ca60048036038101906101c59190611b08565b6106b5565b6040516101d79190612397565b60405180910390f35b6101fa60048036038101906101f59190611974565b610797565b005b61021660048036038101906102119190611b49565b6107b7565b6040516102239190612133565b60405180910390f35b6102466004803603810190610241919061190f565b610869565b6040516102539190612397565b60405180910390f35b610264610921565b60405161027191906121b5565b60405180910390f35b610294600480360381019061028f9190611a3e565b6109b3565b005b6102b060048036038101906102ab91906119c3565b610b34565b005b6102cc60048036038101906102c79190611b49565b610b96565b6040516102d991906121b5565b60405180910390f35b6102fc60048036038101906102f79190611b49565b610c86565b60405161030b939291906123b2565b60405180910390f35b61032e60048036038101906103299190611938565b610d58565b60405161033b919061219a565b60405180910390f35b60007f80ac58cd000000000000000000000000000000000000000000000000000000007bffffffffffffffffffffffffffffffffffffffffffffffffffffffff1916827bffffffffffffffffffffffffffffffffffffffffffffffffffffffff1916148061040f57507f5b5e139f000000000000000000000000000000000000000000000000000000007bffffffffffffffffffffffffffffffffffffffffffffffffffffffff1916827bffffffffffffffffffffffffffffffffffffffffffffffffffffffff1916145b8061041f575061041e82610dec565b5b9050919050565b606060008054610435906125f9565b80601f0160208091040260200160405190810160405280929190818152602001828054610461906125f9565b80156104ae5780601f10610483576101008083540402835291602001916104ae565b820191906000526020600020905b81548152906001019060200180831161049157829003601f168201915b5050505050905090565b60006104c382610e56565b610502576040517f08c379a00000000000000000000000000000000000000000000000000000000081526004016104f990612317565b60405180910390fd5b6004600083815260200190815260200160002060009054906101000a900473ffffffffffffffffffffffffffffffffffffffff169050919050565b6000610548826107b7565b90508073ffffffffffffffffffffffffffffffffffffffff168373ffffffffffffffffffffffffffffffffffffffff1614156105b9576040517f08c379a00000000000000000000000000000000000000000000000000000000081526004016105b090612357565b60405180910390fd5b8073ffffffffffffffffffffffffffffffffffffffff166105d8610ec2565b73ffffffffffffffffffffffffffffffffffffffff161480610607575061060681610601610ec2565b610d58565b5b610646576040517f08c379a000000000000000000000000000000000000000000000000000000000815260040161063d90612297565b60405180910390fd5b6106508383610eca565b505050565b610666610660610ec2565b82610f83565b6106a5576040517f08c379a000000000000000000000000000000000000000000000000000000000815260040161069c90612377565b60405180910390fd5b6106b0838383611061565b505050565b60006106c160066112bd565b60006106cd60066112d3565b90506106d933826112e1565b60405180606001604052808281526020013373ffffffffffffffffffffffffffffffffffffffff16815260200184815250600760008381526020019081526020016000206000820151816000015560208201518160010160006101000a81548173ffffffffffffffffffffffffffffffffffffffff021916908373ffffffffffffffffffffffffffffffffffffffff160217905550604082015181600201908051906020019061078a929190611733565b5090505080915050919050565b6107b283838360405180602001604052806000815250610b34565b505050565b6000806002600084815260200190815260200160002060009054906101000a900473ffffffffffffffffffffffffffffffffffffffff169050600073ffffffffffffffffffffffffffffffffffffffff168173ffffffffffffffffffffffffffffffffffffffff161415610860576040517f08c379a0000000000000000000000000000000000000000000000000000000008152600401610857906122d7565b60405180910390fd5b80915050919050565b60008073ffffffffffffffffffffffffffffffffffffffff168273ffffffffffffffffffffffffffffffffffffffff1614156108da576040517f08c379a00000000000000000000000000000000000000000000000000000000081526004016108d1906122b7565b60405180910390fd5b600360008373ffffffffffffffffffffffffffffffffffffffff1673ffffffffffffffffffffffffffffffffffffffff168152602001908152602001600020549050919050565b606060018054610930906125f9565b80601f016020809104026020016040519081016040528092919081815260200182805461095c906125f9565b80156109a95780601f1061097e576101008083540402835291602001916109a9565b820191906000526020600020905b81548152906001019060200180831161098c57829003601f168201915b5050505050905090565b6109bb610ec2565b73ffffffffffffffffffffffffffffffffffffffff168273ffffffffffffffffffffffffffffffffffffffff161415610a29576040517f08c379a0000000000000000000000000000000000000000000000000000000008152600401610a2090612257565b60405180910390fd5b8060056000610a36610ec2565b73ffffffffffffffffffffffffffffffffffffffff1673ffffffffffffffffffffffffffffffffffffffff16815260200190815260200160002060008473ffffffffffffffffffffffffffffffffffffffff1673ffffffffffffffffffffffffffffffffffffffff16815260200190815260200160002060006101000a81548160ff0219169083151502179055508173ffffffffffffffffffffffffffffffffffffffff16610ae3610ec2565b73ffffffffffffffffffffffffffffffffffffffff167f17307eab39ab6107e8899845ad3d59bd9653f200f220920489ca2b5937696c3183604051610b28919061219a565b60405180910390a35050565b610b45610b3f610ec2565b83610f83565b610b84576040517f08c379a0000000000000000000000000000000000000000000000000000000008152600401610b7b90612377565b60405180910390fd5b610b90848484846112ff565b50505050565b6060610ba182610e56565b610be0576040517f08c379a0000000000000000000000000000000000000000000000000000000008152600401610bd7906121f7565b60405180910390fd5b600760008381526020019081526020016000206002018054610c01906125f9565b80601f0160208091040260200160405190810160405280929190818152602001828054610c2d906125f9565b8015610c7a5780601f10610c4f57610100808354040283529160200191610c7a565b820191906000526020600020905b815481529060010190602001808311610c5d57829003601f168201915b50505050509050919050565b60076020528060005260406000206000915090508060000154908060010160009054906101000a900473ffffffffffffffffffffffffffffffffffffffff1690806002018054610cd5906125f9565b80601f0160208091040260200160405190810160405280929190818152602001828054610d01906125f9565b8015610d4e5780601f10610d2357610100808354040283529160200191610d4e565b820191906000526020600020905b815481529060010190602001808311610d3157829003601f168201915b5050505050905083565b6000600560008473ffffffffffffffffffffffffffffffffffffffff1673ffffffffffffffffffffffffffffffffffffffff16815260200190815260200160002060008373ffffffffffffffffffffffffffffffffffffffff1673ffffffffffffffffffffffffffffffffffffffff16815260200190815260200160002060009054906101000a900460ff16905092915050565b60007f01ffc9a7000000000000000000000000000000000000000000000000000000007bffffffffffffffffffffffffffffffffffffffffffffffffffffffff1916827bffffffffffffffffffffffffffffffffffffffffffffffffffffffff1916149050919050565b60008073ffffffffffffffffffffffffffffffffffffffff166002600084815260200190815260200160002060009054906101000a900473ffffffffffffffffffffffffffffffffffffffff1673ffffffffffffffffffffffffffffffffffffffff1614159050919050565b600033905090565b816004600083815260200190815260200160002060006101000a81548173ffffffffffffffffffffffffffffffffffffffff021916908373ffffffffffffffffffffffffffffffffffffffff160217905550808273ffffffffffffffffffffffffffffffffffffffff16610f3d836107b7565b73ffffffffffffffffffffffffffffffffffffffff167f8c5be1e5ebec7d5bd14f71427d1e84f3dd0314c0f7b2291e5b200ac8c7c3b92560405160405180910390a45050565b6000610f8e82610e56565b610fcd576040517f08c379a0000000000000000000000000000000000000000000000000000000008152600401610fc490612277565b60405180910390fd5b6000610fd8836107b7565b90508073ffffffffffffffffffffffffffffffffffffffff168473ffffffffffffffffffffffffffffffffffffffff16148061104757508373ffffffffffffffffffffffffffffffffffffffff1661102f846104b8565b73ffffffffffffffffffffffffffffffffffffffff16145b8061105857506110578185610d58565b5b91505092915050565b8273ffffffffffffffffffffffffffffffffffffffff16611081826107b7565b73ffffffffffffffffffffffffffffffffffffffff16146110d7576040517f08c379a00000000000000000000000000000000000000000000000000000000081526004016110ce90612337565b60405180910390fd5b600073ffffffffffffffffffffffffffffffffffffffff168273ffffffffffffffffffffffffffffffffffffffff161415611147576040517f08c379a000000000000000000000000000000000000000000000000000000000815260040161113e90612237565b60405180910390fd5b61115283838361135b565b61115d600082610eca565b6001600360008573ffffffffffffffffffffffffffffffffffffffff1673ffffffffffffffffffffffffffffffffffffffff16815260200190815260200160002060008282546111ad919061250f565b925050819055506001600360008473ffffffffffffffffffffffffffffffffffffffff1673ffffffffffffffffffffffffffffffffffffffff168152602001908152602001600020600082825461120491906124b9565b92505081905550816002600083815260200190815260200160002060006101000a81548173ffffffffffffffffffffffffffffffffffffffff021916908373ffffffffffffffffffffffffffffffffffffffff160217905550808273ffffffffffffffffffffffffffffffffffffffff168473ffffffffffffffffffffffffffffffffffffffff167fddf252ad1be2c89b69c2b068fc378daa952ba7f163c4a11628f55a4df523b3ef60405160405180910390a4505050565b6001816000016000828254019250508190555050565b600081600001549050919050565b6112fb828260405180602001604052806000815250611360565b5050565b61130a848484611061565b611316848484846113bb565b611355576040517f08c379a000000000000000000000000000000000000000000000000000000000815260040161134c906121d7565b60405180910390fd5b50505050565b505050565b61136a8383611552565b61137760008484846113bb565b6113b6576040517f08c379a00000000000000000000000000000000000000000000000000000000081526004016113ad906121d7565b60405180910390fd5b505050565b60006113dc8473ffffffffffffffffffffffffffffffffffffffff16611720565b15611545578373ffffffffffffffffffffffffffffffffffffffff1663150b7a02611405610ec2565b8786866040518563ffffffff1660e01b8152600401611427949392919061214e565b602060405180830381600087803b15801561144157600080fd5b505af192505050801561147257506040513d601f19601f8201168201806040525081019061146f9190611adf565b60015b6114f5573d80600081146114a2576040519150601f19603f3d011682016040523d82523d6000602084013e6114a7565b606091505b506000815114156114ed576040517f08c379a00000000000000000000000000000000000000000000000000000000081526004016114e4906121d7565b60405180910390fd5b805181602001fd5b63150b7a0260e01b7bffffffffffffffffffffffffffffffffffffffffffffffffffffffff1916817bffffffffffffffffffffffffffffffffffffffffffffffffffffffff19161491505061154a565b600190505b949350505050565b600073ffffffffffffffffffffffffffffffffffffffff168273ffffffffffffffffffffffffffffffffffffffff1614156115c2576040517f08c379a00000000000000000000000000000000000000000000000000000000081526004016115b9906122f7565b60405180910390fd5b6115cb81610e56565b1561160b576040517f08c379a000000000000000000000000000000000000000000000000000000000815260040161160290612217565b60405180910390fd5b6116176000838361135b565b6001600360008473ffffffffffffffffffffffffffffffffffffffff1673ffffffffffffffffffffffffffffffffffffffff168152602001908152602001600020600082825461166791906124b9565b92505081905550816002600083815260200190815260200160002060006101000a81548173ffffffffffffffffffffffffffffffffffffffff021916908373ffffffffffffffffffffffffffffffffffffffff160217905550808273ffffffffffffffffffffffffffffffffffffffff16600073ffffffffffffffffffffffffffffffffffffffff167fddf252ad1be2c89b69c2b068fc378daa952ba7f163c4a11628f55a4df523b3ef60405160405180910390a45050565b600080823b905060008111915050919050565b82805461173f906125f9565b90600052602060002090601f01602090048101928261176157600085556117a8565b82601f1061177a57805160ff19168380011785556117a8565b828001600101855582156117a8579182015b828111156117a757825182559160200191906001019061178c565b5b5090506117b591906117b9565b5090565b5b808211156117d25760008160009055506001016117ba565b5090565b60006117e96117e484612421565b6123f0565b90508281526020810184848401111561180157600080fd5b61180c8482856125b7565b509392505050565b600061182761182284612451565b6123f0565b90508281526020810184848401111561183f57600080fd5b61184a8482856125b7565b509392505050565b600081359050611861816126c9565b92915050565b600081359050611876816126e0565b92915050565b60008135905061188b816126f7565b92915050565b6000815190506118a0816126f7565b92915050565b600082601f8301126118b757600080fd5b81356118c78482602086016117d6565b91505092915050565b600082601f8301126118e157600080fd5b81356118f1848260208601611814565b91505092915050565b6000813590506119098161270e565b92915050565b60006020828403121561192157600080fd5b600061192f84828501611852565b91505092915050565b6000806040838503121561194b57600080fd5b600061195985828601611852565b925050602061196a85828601611852565b9150509250929050565b60008060006060848603121561198957600080fd5b600061199786828701611852565b93505060206119a886828701611852565b92505060406119b9868287016118fa565b9150509250925092565b600080600080608085870312156119d957600080fd5b60006119e787828801611852565b94505060206119f887828801611852565b9350506040611a09878288016118fa565b925050606085013567ffffffffffffffff811115611a2657600080fd5b611a32878288016118a6565b91505092959194509250565b60008060408385031215611a5157600080fd5b6000611a5f85828601611852565b9250506020611a7085828601611867565b9150509250929050565b60008060408385031215611a8d57600080fd5b6000611a9b85828601611852565b9250506020611aac858286016118fa565b9150509250929050565b600060208284031215611ac857600080fd5b6000611ad68482850161187c565b91505092915050565b600060208284031215611af157600080fd5b6000611aff84828501611891565b91505092915050565b600060208284031215611b1a57600080fd5b600082013567ffffffffffffffff811115611b3457600080fd5b611b40848285016118d0565b91505092915050565b600060208284031215611b5b57600080fd5b6000611b69848285016118fa565b91505092915050565b611b7b81612543565b82525050565b611b8a81612555565b82525050565b6000611b9b82612481565b611ba58185612497565b9350611bb58185602086016125c6565b611bbe816126b8565b840191505092915050565b6000611bd48261248c565b611bde81856124a8565b9350611bee8185602086016125c6565b611bf7816126b8565b840191505092915050565b6000611c0f6032836124a8565b91507f4552433732313a207472616e7366657220746f206e6f6e20455243373231526560008301527f63656976657220696d706c656d656e74657200000000000000000000000000006020830152604082019050919050565b6000611c756027836124a8565b91507f455243373231204d657461646174613a20746f6b656e494420646f6573206e6f60008301527f74206578697374000000000000000000000000000000000000000000000000006020830152604082019050919050565b6000611cdb601c836124a8565b91507f4552433732313a20746f6b656e20616c7265616479206d696e746564000000006000830152602082019050919050565b6000611d1b6024836124a8565b91507f4552433732313a207472616e7366657220746f20746865207a65726f2061646460008301527f72657373000000000000000000000000000000000000000000000000000000006020830152604082019050919050565b6000611d816019836124a8565b91507f4552433732313a20617070726f766520746f2063616c6c6572000000000000006000830152602082019050919050565b6000611dc1602c836124a8565b91507f4552433732313a206f70657261746f7220717565727920666f72206e6f6e657860008301527f697374656e7420746f6b656e00000000000000000000000000000000000000006020830152604082019050919050565b6000611e276038836124a8565b91507f4552433732313a20617070726f76652063616c6c6572206973206e6f74206f7760008301527f6e6572206e6f7220617070726f76656420666f7220616c6c00000000000000006020830152604082019050919050565b6000611e8d602a836124a8565b91507f4552433732313a2062616c616e636520717565727920666f7220746865207a6560008301527f726f2061646472657373000000000000000000000000000000000000000000006020830152604082019050919050565b6000611ef36029836124a8565b91507f4552433732313a206f776e657220717565727920666f72206e6f6e657869737460008301527f656e7420746f6b656e00000000000000000000000000000000000000000000006020830152604082019050919050565b6000611f596020836124a8565b91507f4552433732313a206d696e7420746f20746865207a65726f20616464726573736000830152602082019050919050565b6000611f99602c836124a8565b91507f4552433732313a20617070726f76656420717565727920666f72206e6f6e657860008301527f697374656e7420746f6b656e00000000000000000000000000000000000000006020830152604082019050919050565b6000611fff6029836124a8565b91507f4552433732313a207472616e73666572206f6620746f6b656e2074686174206960008301527f73206e6f74206f776e00000000000000000000000000000000000000000000006020830152604082019050919050565b60006120656021836124a8565b91507f4552433732313a20617070726f76616c20746f2063757272656e74206f776e6560008301527f72000000000000000000000000000000000000000000000000000000000000006020830152604082019050919050565b60006120cb6031836124a8565b91507f4552433732313a207472616e736665722063616c6c6572206973206e6f74206f60008301527f776e6572206e6f7220617070726f7665640000000000000000000000000000006020830152604082019050919050565b61212d816125ad565b82525050565b60006020820190506121486000830184611b72565b92915050565b60006080820190506121636000830187611b72565b6121706020830186611b72565b61217d6040830185612124565b818103606083015261218f8184611b90565b905095945050505050565b60006020820190506121af6000830184611b81565b92915050565b600060208201905081810360008301526121cf8184611bc9565b905092915050565b600060208201905081810360008301526121f081611c02565b9050919050565b6000602082019050818103600083015261221081611c68565b9050919050565b6000602082019050818103600083015261223081611cce565b9050919050565b6000602082019050818103600083015261225081611d0e565b9050919050565b6000602082019050818103600083015261227081611d74565b9050919050565b6000602082019050818103600083015261229081611db4565b9050919050565b600060208201905081810360008301526122b081611e1a565b9050919050565b600060208201905081810360008301526122d081611e80565b9050919050565b600060208201905081810360008301526122f081611ee6565b9050919050565b6000602082019050818103600083015261231081611f4c565b9050919050565b6000602082019050818103600083015261233081611f8c565b9050919050565b6000602082019050818103600083015261235081611ff2565b9050919050565b6000602082019050818103600083015261237081612058565b9050919050565b60006020820190508181036000830152612390816120be565b9050919050565b60006020820190506123ac6000830184612124565b92915050565b60006060820190506123c76000830186612124565b6123d46020830185611b72565b81810360408301526123e68184611bc9565b9050949350505050565b6000604051905081810181811067ffffffffffffffff8211171561241757612416612689565b5b8060405250919050565b600067ffffffffffffffff82111561243c5761243b612689565b5b601f19601f8301169050602081019050919050565b600067ffffffffffffffff82111561246c5761246b612689565b5b601f19601f8301169050602081019050919050565b600081519050919050565b600081519050919050565b600082825260208201905092915050565b600082825260208201905092915050565b60006124c4826125ad565b91506124cf836125ad565b9250827fffffffffffffffffffffffffffffffffffffffffffffffffffffffffffffffff038211156125045761250361262b565b5b828201905092915050565b600061251a826125ad565b9150612525836125ad565b9250828210156125385761253761262b565b5b828203905092915050565b600061254e8261258d565b9050919050565b60008115159050919050565b60007fffffffff0000000000000000000000000000000000000000000000000000000082169050919050565b600073ffffffffffffffffffffffffffffffffffffffff82169050919050565b6000819050919050565b82818337600083830152505050565b60005b838110156125e45780820151818401526020810190506125c9565b838111156125f3576000848401525b50505050565b6000600282049050600182168061261157607f821691505b602082108114156126255761262461265a565b5b50919050565b7f4e487b7100000000000000000000000000000000000000000000000000000000600052601160045260246000fd5b7f4e487b7100000000000000000000000000000000000000000000000000000000600052602260045260246000fd5b7f4e487b7100000000000000000000000000000000000000000000000000000000600052604160045260246000fd5b6000601f19601f8301169050919050565b6126d281612543565b81146126dd57600080fd5b50565b6126e981612555565b81146126f457600080fd5b50565b61270081612561565b811461270b57600080fd5b50565b612717816125ad565b811461272257600080fd5b5056fea2646970667358221220f8eb421476c93d0d783ae794d6b3a39f9f06267cdac2f7693a99cea467d75a4464736f6c63430008000033",
  "immutableReferences": {},
  "source": "// SPDX-License-Identifier: MIT\r\npragma solidity ^0.8.0;\r\n\r\n\r\nimport \"@openzeppelin/contracts/token/ERC721/ERC721.sol\";\r\nimport \"@openzeppelin/contracts/utils/Counters.sol\";\r\n\r\ncontract Qrollectible is ERC721 \r\n{\r\n\r\n\tusing Counters for Counters.Counter;\r\n  \tCounters.Counter private _tokenIDs; \r\n\r\n    constructor() ERC721(\"Qrollectible\", \"QRO\") {}\r\n\r\n    struct Collectible \r\n    {\r\n    \tuint256 id;\r\n    \taddress recepient; \r\n    \tstring uri;\r\n    }\r\n\r\n    mapping(uint256 => Collectible) public Collectibles; \r\n\r\n    function createItem(string memory uri) public returns (uint256)\r\n    {\r\n    \t_tokenIDs.increment();\r\n    \tuint256 nextID = _tokenIDs.current();\r\n    \t_safeMint(msg.sender, nextID);\r\n\r\n    \tCollectibles[nextID] = Collectible(nextID, msg.sender, uri);\r\n\r\n    \treturn nextID;\r\n    }\r\n\r\n    function tokenURI(uint256 tokenID) public view override returns (string memory)\r\n    {\r\n    \trequire(_exists(tokenID), \"ERC721 Metadata: tokenID does not exist\");\r\n\r\n    \treturn Collectibles[tokenID].uri;\r\n    }\r\n}\r\n\r\n",
  "sourcePath": "D:/Blockchain Programming/QrollectiblesMain/frontend/packages/contracts/contracts/Qrollectible.sol",
  "compiler": {
    "name": "solc",
    "version": "0.8.0+commit.c7dfd78e.Emscripten.clang"
  },
  "schemaVersion": "3.4.1",
  "updatedAt": "2021-10-10T05:44:00.844Z",
  "networkType": "ethereum",
  "devdoc": {
    "kind": "dev",
    "methods": {
      "approve(address,uint256)": {
        "details": "See {IERC721-approve}."
      },
      "balanceOf(address)": {
        "details": "See {IERC721-balanceOf}."
      },
      "getApproved(uint256)": {
        "details": "See {IERC721-getApproved}."
      },
      "isApprovedForAll(address,address)": {
        "details": "See {IERC721-isApprovedForAll}."
      },
      "name()": {
        "details": "See {IERC721Metadata-name}."
      },
      "ownerOf(uint256)": {
        "details": "See {IERC721-ownerOf}."
      },
      "safeTransferFrom(address,address,uint256)": {
        "details": "See {IERC721-safeTransferFrom}."
      },
      "safeTransferFrom(address,address,uint256,bytes)": {
        "details": "See {IERC721-safeTransferFrom}."
      },
      "setApprovalForAll(address,bool)": {
        "details": "See {IERC721-setApprovalForAll}."
      },
      "supportsInterface(bytes4)": {
        "details": "See {IERC165-supportsInterface}."
      },
      "symbol()": {
        "details": "See {IERC721Metadata-symbol}."
      },
      "transferFrom(address,address,uint256)": {
        "details": "See {IERC721-transferFrom}."
      }
    },
    "version": 1
  },
  "userdoc": {
    "kind": "user",
    "methods": {},
    "version": 1
  }
}