{
  "contractName": "TaroNFTMarketplace",
  "abi": [
    {
      "inputs": [
        {
          "internalType": "address",
          "name": "_acceptedToken",
          "type": "address"
        },
        {
          "internalType": "address",
          "name": "_owner",
          "type": "address"
        }
      ],
      "stateMutability": "nonpayable",
      "type": "constructor"
    },
    {
      "anonymous": false,
      "inputs": [
        {
          "indexed": false,
          "internalType": "address",
          "name": "userAddress",
          "type": "address"
        },
        {
          "indexed": false,
          "internalType": "address",
          "name": "relayerAddress",
          "type": "address"
        },
        {
          "indexed": false,
          "internalType": "bytes",
          "name": "functionSignature",
          "type": "bytes"
        }
      ],
      "name": "MetaTransactionExecuted",
      "type": "event"
    },
    {
      "anonymous": false,
      "inputs": [
        {
          "indexed": false,
          "internalType": "bytes32",
          "name": "id",
          "type": "bytes32"
        },
        {
          "indexed": true,
          "internalType": "uint256",
          "name": "assetId",
          "type": "uint256"
        },
        {
          "indexed": true,
          "internalType": "address",
          "name": "seller",
          "type": "address"
        },
        {
          "indexed": false,
          "internalType": "address",
          "name": "tokenAddress",
          "type": "address"
        }
      ],
      "name": "OrderCancelled",
      "type": "event"
    },
    {
      "anonymous": false,
      "inputs": [
        {
          "indexed": false,
          "internalType": "bytes32",
          "name": "id",
          "type": "bytes32"
        },
        {
          "indexed": true,
          "internalType": "uint256",
          "name": "assetId",
          "type": "uint256"
        },
        {
          "indexed": true,
          "internalType": "address",
          "name": "seller",
          "type": "address"
        },
        {
          "indexed": false,
          "internalType": "address",
          "name": "tokenAddress",
          "type": "address"
        },
        {
          "indexed": false,
          "internalType": "uint256",
          "name": "priceInWei",
          "type": "uint256"
        },
        {
          "indexed": false,
          "internalType": "uint256",
          "name": "expiresAt",
          "type": "uint256"
        }
      ],
      "name": "OrderCreated",
      "type": "event"
    },
    {
      "anonymous": false,
      "inputs": [
        {
          "indexed": false,
          "internalType": "bytes32",
          "name": "id",
          "type": "bytes32"
        },
        {
          "indexed": true,
          "internalType": "uint256",
          "name": "assetId",
          "type": "uint256"
        },
        {
          "indexed": true,
          "internalType": "address",
          "name": "seller",
          "type": "address"
        },
        {
          "indexed": false,
          "internalType": "address",
          "name": "tokenAddress",
          "type": "address"
        },
        {
          "indexed": false,
          "internalType": "uint256",
          "name": "totalPrice",
          "type": "uint256"
        },
        {
          "indexed": true,
          "internalType": "address",
          "name": "buyer",
          "type": "address"
        }
      ],
      "name": "OrderSuccessful",
      "type": "event"
    },
    {
      "anonymous": false,
      "inputs": [
        {
          "indexed": true,
          "internalType": "address",
          "name": "previousOwner",
          "type": "address"
        },
        {
          "indexed": true,
          "internalType": "address",
          "name": "newOwner",
          "type": "address"
        }
      ],
      "name": "OwnershipTransferred",
      "type": "event"
    },
    {
      "anonymous": false,
      "inputs": [
        {
          "indexed": false,
          "internalType": "address",
          "name": "account",
          "type": "address"
        }
      ],
      "name": "Paused",
      "type": "event"
    },
    {
      "anonymous": false,
      "inputs": [
        {
          "indexed": false,
          "internalType": "address",
          "name": "account",
          "type": "address"
        }
      ],
      "name": "Unpaused",
      "type": "event"
    },
    {
      "inputs": [],
      "name": "ERC721_Interface",
      "outputs": [
        {
          "internalType": "bytes4",
          "name": "",
          "type": "bytes4"
        }
      ],
      "stateMutability": "view",
      "type": "function",
      "constant": true
    },
    {
      "inputs": [],
      "name": "InterfaceId_ValidateFingerprint",
      "outputs": [
        {
          "internalType": "bytes4",
          "name": "",
          "type": "bytes4"
        }
      ],
      "stateMutability": "view",
      "type": "function",
      "constant": true
    },
    {
      "inputs": [],
      "name": "acceptedToken",
      "outputs": [
        {
          "internalType": "contract ERC20Interface",
          "name": "",
          "type": "address"
        }
      ],
      "stateMutability": "view",
      "type": "function",
      "constant": true
    },
    {
      "inputs": [],
      "name": "domainSeparator",
      "outputs": [
        {
          "internalType": "bytes32",
          "name": "",
          "type": "bytes32"
        }
      ],
      "stateMutability": "view",
      "type": "function",
      "constant": true
    },
    {
      "inputs": [
        {
          "internalType": "address",
          "name": "userAddress",
          "type": "address"
        },
        {
          "internalType": "bytes",
          "name": "functionSignature",
          "type": "bytes"
        },
        {
          "internalType": "bytes32",
          "name": "sigR",
          "type": "bytes32"
        },
        {
          "internalType": "bytes32",
          "name": "sigS",
          "type": "bytes32"
        },
        {
          "internalType": "uint8",
          "name": "sigV",
          "type": "uint8"
        }
      ],
      "name": "executeMetaTransaction",
      "outputs": [
        {
          "internalType": "bytes",
          "name": "",
          "type": "bytes"
        }
      ],
      "stateMutability": "payable",
      "type": "function",
      "payable": true
    },
    {
      "inputs": [],
      "name": "getChainId",
      "outputs": [
        {
          "internalType": "uint256",
          "name": "",
          "type": "uint256"
        }
      ],
      "stateMutability": "view",
      "type": "function",
      "constant": true
    },
    {
      "inputs": [
        {
          "internalType": "address",
          "name": "user",
          "type": "address"
        }
      ],
      "name": "getNonce",
      "outputs": [
        {
          "internalType": "uint256",
          "name": "nonce",
          "type": "uint256"
        }
      ],
      "stateMutability": "view",
      "type": "function",
      "constant": true
    },
    {
      "inputs": [
        {
          "internalType": "address",
          "name": "",
          "type": "address"
        },
        {
          "internalType": "uint256",
          "name": "",
          "type": "uint256"
        }
      ],
      "name": "orderByAssetId",
      "outputs": [
        {
          "internalType": "bytes32",
          "name": "id",
          "type": "bytes32"
        },
        {
          "internalType": "address",
          "name": "seller",
          "type": "address"
        },
        {
          "internalType": "address",
          "name": "tokenAddress",
          "type": "address"
        },
        {
          "internalType": "uint256",
          "name": "price",
          "type": "uint256"
        },
        {
          "internalType": "uint256",
          "name": "expiresAt",
          "type": "uint256"
        }
      ],
      "stateMutability": "view",
      "type": "function",
      "constant": true
    },
    {
      "inputs": [],
      "name": "owner",
      "outputs": [
        {
          "internalType": "address",
          "name": "",
          "type": "address"
        }
      ],
      "stateMutability": "view",
      "type": "function",
      "constant": true
    },
    {
      "inputs": [],
      "name": "paused",
      "outputs": [
        {
          "internalType": "bool",
          "name": "",
          "type": "bool"
        }
      ],
      "stateMutability": "view",
      "type": "function",
      "constant": true
    },
    {
      "inputs": [],
      "name": "renounceOwnership",
      "outputs": [],
      "stateMutability": "nonpayable",
      "type": "function"
    },
    {
      "inputs": [
        {
          "internalType": "address",
          "name": "newOwner",
          "type": "address"
        }
      ],
      "name": "transferOwnership",
      "outputs": [],
      "stateMutability": "nonpayable",
      "type": "function"
    },
    {
      "inputs": [
        {
          "internalType": "address",
          "name": "tokenAddress",
          "type": "address"
        },
        {
          "internalType": "uint256",
          "name": "tokenId",
          "type": "uint256"
        },
        {
          "internalType": "uint256",
          "name": "askingPrice",
          "type": "uint256"
        },
        {
          "internalType": "uint256",
          "name": "expiresAt",
          "type": "uint256"
        }
      ],
      "name": "createOrder",
      "outputs": [],
      "stateMutability": "nonpayable",
      "type": "function"
    },
    {
      "inputs": [
        {
          "internalType": "address",
          "name": "tokenAddress",
          "type": "address"
        },
        {
          "internalType": "uint256",
          "name": "tokenId",
          "type": "uint256"
        }
      ],
      "name": "cancelOrder",
      "outputs": [],
      "stateMutability": "nonpayable",
      "type": "function"
    },
    {
      "inputs": [
        {
          "internalType": "address",
          "name": "tokenAddress",
          "type": "address"
        },
        {
          "internalType": "uint256",
          "name": "tokenId",
          "type": "uint256"
        },
        {
          "internalType": "uint256",
          "name": "price",
          "type": "uint256"
        },
        {
          "internalType": "bytes",
          "name": "fingerprint",
          "type": "bytes"
        }
      ],
      "name": "safeExecuteOrder",
      "outputs": [],
      "stateMutability": "nonpayable",
      "type": "function"
    },
    {
      "inputs": [
        {
          "internalType": "address",
          "name": "tokenAddress",
          "type": "address"
        },
        {
          "internalType": "uint256",
          "name": "tokenId",
          "type": "uint256"
        },
        {
          "internalType": "uint256",
          "name": "price",
          "type": "uint256"
        }
      ],
      "name": "executeOrder",
      "outputs": [],
      "stateMutability": "nonpayable",
      "type": "function"
    }
  ],
  "bytecode": "0x60806040523480156200001157600080fd5b5060405162003f1f38038062003f1f833981810160405281019062000037919062000605565b600062000049620002b860201b60201c565b9050806000806101000a81548173ffffffffffffffffffffffffffffffffffffffff021916908373ffffffffffffffffffffffffffffffffffffffff1602179055508073ffffffffffffffffffffffffffffffffffffffff16600073ffffffffffffffffffffffffffffffffffffffff167f8be0079c531659141344cd1fd0a4f28419497f9722a3daafe3b4186f6b6457e060405160405180910390a35060008060146101000a81548160ff0219169083151502179055506200017d6040518060400160405280601d81526020017f51726f6c6c65637469626c6573204e4654204d61726b6574706c6163650000008152506040518060400160405280600181526020017f31000000000000000000000000000000000000000000000000000000000000008152506200036b60201b60201c565b600073ffffffffffffffffffffffffffffffffffffffff168173ffffffffffffffffffffffffffffffffffffffff161415620001f0576040517f08c379a0000000000000000000000000000000000000000000000000000000008152600401620001e79062000819565b60405180910390fd5b6200020181620003e660201b60201c565b6200022d8273ffffffffffffffffffffffffffffffffffffffff16620005a560201b62000bed1760201c565b6200026f576040517f08c379a000000000000000000000000000000000000000000000000000000000815260040162000266906200083b565b60405180910390fd5b81600160006101000a81548173ffffffffffffffffffffffffffffffffffffffff021916908373ffffffffffffffffffffffffffffffffffffffff16021790555050506200090a565b60003073ffffffffffffffffffffffffffffffffffffffff163373ffffffffffffffffffffffffffffffffffffffff1614156200036457600080368080601f016020809104026020016040519081016040528093929190818152602001838380828437600081840152601f19601f820116905080830192505050505050509050600080369050905073ffffffffffffffffffffffffffffffffffffffff81830151169250505062000368565b3390505b90565b6040518060800160405280604f815260200162003ed0604f9139805190602001208280519060200120828051906020012030620003ad620005b860201b60201c565b60001b604051602001620003c6959493929190620007bc565b604051602081830303815290604052805190602001206003819055505050565b620003f6620002b860201b60201c565b73ffffffffffffffffffffffffffffffffffffffff166200041c620005c560201b60201c565b73ffffffffffffffffffffffffffffffffffffffff161462000475576040517f08c379a00000000000000000000000000000000000000000000000000000000081526004016200046c906200087f565b60405180910390fd5b600073ffffffffffffffffffffffffffffffffffffffff168173ffffffffffffffffffffffffffffffffffffffff161415620004e8576040517f08c379a0000000000000000000000000000000000000000000000000000000008152600401620004df906200085d565b60405180910390fd5b8073ffffffffffffffffffffffffffffffffffffffff1660008054906101000a900473ffffffffffffffffffffffffffffffffffffffff1673ffffffffffffffffffffffffffffffffffffffff167f8be0079c531659141344cd1fd0a4f28419497f9722a3daafe3b4186f6b6457e060405160405180910390a3806000806101000a81548173ffffffffffffffffffffffffffffffffffffffff021916908373ffffffffffffffffffffffffffffffffffffffff16021790555050565b600080823b905060008111915050919050565b6000804690508091505090565b60008060009054906101000a900473ffffffffffffffffffffffffffffffffffffffff16905090565b600081519050620005ff81620008f0565b92915050565b600080604083850312156200061957600080fd5b60006200062985828601620005ee565b92505060206200063c85828601620005ee565b9150509250929050565b6200065181620008b2565b82525050565b6200066281620008c6565b82525050565b600062000677600d83620008a1565b91507f496e76616c6964206f776e6572000000000000000000000000000000000000006000830152602082019050919050565b6000620006b9603683620008a1565b91507f54686520616363657074656420746f6b656e2061646472657373206d7573742060008301527f62652061206465706c6f79656420636f6e7472616374000000000000000000006020830152604082019050919050565b600062000721602683620008a1565b91507f4f776e61626c653a206e6577206f776e657220697320746865207a65726f206160008301527f64647265737300000000000000000000000000000000000000000000000000006020830152604082019050919050565b600062000789602083620008a1565b91507f4f776e61626c653a2063616c6c6572206973206e6f7420746865206f776e65726000830152602082019050919050565b600060a082019050620007d3600083018862000657565b620007e2602083018762000657565b620007f1604083018662000657565b62000800606083018562000646565b6200080f608083018462000657565b9695505050505050565b60006020820190508181036000830152620008348162000668565b9050919050565b600060208201905081810360008301526200085681620006aa565b9050919050565b60006020820190508181036000830152620008788162000712565b9050919050565b600060208201905081810360008301526200089a816200077a565b9050919050565b600082825260208201905092915050565b6000620008bf82620008d0565b9050919050565b6000819050919050565b600073ffffffffffffffffffffffffffffffffffffffff82169050919050565b620008fb81620008b2565b81146200090757600080fd5b50565b6135b6806200091a6000396000f3fe6080604052600436106100f35760003560e01c80636f652e1a1161008a578063ae7b033311610059578063ae7b0333146102f9578063e61f385114610322578063f2fde38b14610363578063f698da251461038c576100f3565b80636f652e1a14610265578063715018a61461028e5780638da5cb5b146102a55780639b214f77146102d0576100f3565b806337f82f37116100c657806337f82f37146101bb578063451c3d80146101e65780635c975abb146102115780636a2061371461023c576100f3565b80630c53c51c146100f85780632b4c32be146101285780632d0335ab146101535780633408e47014610190575b600080fd5b610112600480360381019061010d91906121cd565b6103b7565b60405161011f9190612f23565b60405180910390f35b34801561013457600080fd5b5061013d610622565b60405161014a9190612f08565b60405180910390f35b34801561015f57600080fd5b5061017a6004803603810190610175919061217b565b61062d565b60405161018791906131e0565b60405180910390f35b34801561019c57600080fd5b506101a5610676565b6040516101b291906131e0565b60405180910390f35b3480156101c757600080fd5b506101d0610683565b6040516101dd9190612f08565b60405180910390f35b3480156101f257600080fd5b506101fb6106a7565b6040516102089190612f45565b60405180910390f35b34801561021d57600080fd5b506102266106cd565b6040516102339190612d50565b60405180910390f35b34801561024857600080fd5b50610263600480360381019061025e919061225c565b6106e3565b005b34801561027157600080fd5b5061028c60048036038101906102879190612362565b61073a565b005b34801561029a57600080fd5b506102a3610794565b005b3480156102b157600080fd5b506102ba6108ce565b6040516102c79190612c97565b60405180910390f35b3480156102dc57600080fd5b506102f760048036038101906102f291906122e7565b6108f7565b005b34801561030557600080fd5b50610320600480360381019061031b9190612298565b610952565b005b34801561032e57600080fd5b506103496004803603810190610344919061225c565b6109bb565b60405161035a959493929190612daf565b60405180910390f35b34801561036f57600080fd5b5061038a6004803603810190610385919061217b565b610a3e565b005b34801561039857600080fd5b506103a1610be7565b6040516103ae9190612d6b565b60405180910390f35b606060006040518060600160405280600460008a73ffffffffffffffffffffffffffffffffffffffff1673ffffffffffffffffffffffffffffffffffffffff1681526020019081526020016000205481526020018873ffffffffffffffffffffffffffffffffffffffff16815260200187815250905061043a8782878787610c00565b610479576040517f08c379a000000000000000000000000000000000000000000000000000000000815260040161047090613000565b60405180910390fd5b6001600460008973ffffffffffffffffffffffffffffffffffffffff1673ffffffffffffffffffffffffffffffffffffffff168152602001908152602001600020546104c591906132cf565b600460008973ffffffffffffffffffffffffffffffffffffffff1673ffffffffffffffffffffffffffffffffffffffff168152602001908152602001600020819055507f5845892132946850460bff5a0083f71031bc5bf9aadcd40f1de79423eac9b10b87338860405161053b93929190612cdb565b60405180910390a16000803073ffffffffffffffffffffffffffffffffffffffff16888a604051602001610570929190612bd9565b60405160208183030381529060405260405161058c9190612bc2565b6000604051808303816000865af19150503d80600081146105c9576040519150601f19603f3d011682016040523d82523d6000602084013e6105ce565b606091505b509150915081610613576040517f08c379a000000000000000000000000000000000000000000000000000000000815260040161060a906130a0565b60405180910390fd5b80935050505095945050505050565b6380ac58cd60e01b81565b6000600460008373ffffffffffffffffffffffffffffffffffffffff1673ffffffffffffffffffffffffffffffffffffffff168152602001908152602001600020549050919050565b6000804690508091505090565b7f8f9f4b63fb27ea36c52c6e650320201c8f2c6d7c1dfa95f40f5d5da52392016881565b600160009054906101000a900473ffffffffffffffffffffffffffffffffffffffff1681565b60008060149054906101000a900460ff16905090565b6106eb6106cd565b1561072b576040517f08c379a000000000000000000000000000000000000000000000000000000000815260040161072290613040565b60405180910390fd5b6107358282610d09565b505050565b6107426106cd565b15610782576040517f08c379a000000000000000000000000000000000000000000000000000000000815260040161077990613040565b60405180910390fd5b61078e84848484611072565b50505050565b61079c61158b565b73ffffffffffffffffffffffffffffffffffffffff166107ba6108ce565b73ffffffffffffffffffffffffffffffffffffffff1614610810576040517f08c379a0000000000000000000000000000000000000000000000000000000008152600401610807906130c0565b60405180910390fd5b600073ffffffffffffffffffffffffffffffffffffffff1660008054906101000a900473ffffffffffffffffffffffffffffffffffffffff1673ffffffffffffffffffffffffffffffffffffffff167f8be0079c531659141344cd1fd0a4f28419497f9722a3daafe3b4186f6b6457e060405160405180910390a360008060006101000a81548173ffffffffffffffffffffffffffffffffffffffff021916908373ffffffffffffffffffffffffffffffffffffffff160217905550565b60008060009054906101000a900473ffffffffffffffffffffffffffffffffffffffff16905090565b6108ff6106cd565b1561093f576040517f08c379a000000000000000000000000000000000000000000000000000000000815260040161093690613040565b60405180910390fd5b61094b8484848461163c565b5050505050565b61095a6106cd565b1561099a576040517f08c379a000000000000000000000000000000000000000000000000000000000815260040161099190613040565b60405180910390fd5b6109b58383836040518060200160405280600081525061163c565b50505050565b6002602052816000526040600020602052806000526040600020600091509150508060000154908060010160009054906101000a900473ffffffffffffffffffffffffffffffffffffffff16908060020160009054906101000a900473ffffffffffffffffffffffffffffffffffffffff16908060030154908060040154905085565b610a4661158b565b73ffffffffffffffffffffffffffffffffffffffff16610a646108ce565b73ffffffffffffffffffffffffffffffffffffffff1614610aba576040517f08c379a0000000000000000000000000000000000000000000000000000000008152600401610ab1906130c0565b60405180910390fd5b600073ffffffffffffffffffffffffffffffffffffffff168173ffffffffffffffffffffffffffffffffffffffff161415610b2a576040517f08c379a0000000000000000000000000000000000000000000000000000000008152600401610b2190612f80565b60405180910390fd5b8073ffffffffffffffffffffffffffffffffffffffff1660008054906101000a900473ffffffffffffffffffffffffffffffffffffffff1673ffffffffffffffffffffffffffffffffffffffff167f8be0079c531659141344cd1fd0a4f28419497f9722a3daafe3b4186f6b6457e060405160405180910390a3806000806101000a81548173ffffffffffffffffffffffffffffffffffffffff021916908373ffffffffffffffffffffffffffffffffffffffff16021790555050565b60035481565b600080823b905060008111915050919050565b60008073ffffffffffffffffffffffffffffffffffffffff168673ffffffffffffffffffffffffffffffffffffffff161415610c71576040517f08c379a0000000000000000000000000000000000000000000000000000000008152600401610c6890613140565b60405180910390fd5b6001610c84610c7f87611e4f565b611eb7565b83868660405160008152602001604052604051610ca49493929190612ec3565b6020604051602081039080840390855afa158015610cc6573d6000803e3d6000fd5b5050506020604051035173ffffffffffffffffffffffffffffffffffffffff168673ffffffffffffffffffffffffffffffffffffffff1614905095945050505050565b610d11612037565b6000610d1b61158b565b90506000600260008673ffffffffffffffffffffffffffffffffffffffff1673ffffffffffffffffffffffffffffffffffffffff16815260200190815260200160002060008581526020019081526020016000206040518060a0016040529081600082015481526020016001820160009054906101000a900473ffffffffffffffffffffffffffffffffffffffff1673ffffffffffffffffffffffffffffffffffffffff1673ffffffffffffffffffffffffffffffffffffffff1681526020016002820160009054906101000a900473ffffffffffffffffffffffffffffffffffffffff1673ffffffffffffffffffffffffffffffffffffffff1673ffffffffffffffffffffffffffffffffffffffff1681526020016003820154815260200160048201548152505090506000801b81600001511415610e90576040517f08c379a0000000000000000000000000000000000000000000000000000000008152600401610e87906130e0565b60405180910390fd5b8173ffffffffffffffffffffffffffffffffffffffff16816020015173ffffffffffffffffffffffffffffffffffffffff161480610f005750610ed16108ce565b73ffffffffffffffffffffffffffffffffffffffff168273ffffffffffffffffffffffffffffffffffffffff16145b610f3f576040517f08c379a0000000000000000000000000000000000000000000000000000000008152600401610f3690612fc0565b60405180910390fd5b600081600001519050600082602001519050600083604001519050600260008973ffffffffffffffffffffffffffffffffffffffff1673ffffffffffffffffffffffffffffffffffffffff16815260200190815260200160002060008881526020019081526020016000206000808201600090556001820160006101000a81549073ffffffffffffffffffffffffffffffffffffffff02191690556002820160006101000a81549073ffffffffffffffffffffffffffffffffffffffff02191690556003820160009055600482016000905550508173ffffffffffffffffffffffffffffffffffffffff16877f0325426328de5b91ae4ad8462ad4076de4bcaf4551e81556185cacde5a425c6b858460405161105c929190612d86565b60405180910390a3839550505050505092915050565b61107b84611eeb565b600061108561158b565b9050600085905060008173ffffffffffffffffffffffffffffffffffffffff16636352211e876040518263ffffffff1660e01b81526004016110c791906131e0565b60206040518083038186803b1580156110df57600080fd5b505afa1580156110f3573d6000803e3d6000fd5b505050506040513d601f19601f8201168201806040525081019061111791906121a4565b90508073ffffffffffffffffffffffffffffffffffffffff168373ffffffffffffffffffffffffffffffffffffffff1614611187576040517f08c379a000000000000000000000000000000000000000000000000000000000815260040161117e90613020565b60405180910390fd5b3073ffffffffffffffffffffffffffffffffffffffff168273ffffffffffffffffffffffffffffffffffffffff1663081812fc886040518263ffffffff1660e01b81526004016111d791906131e0565b60206040518083038186803b1580156111ef57600080fd5b505afa158015611203573d6000803e3d6000fd5b505050506040513d601f19601f8201168201806040525081019061122791906121a4565b73ffffffffffffffffffffffffffffffffffffffff1614806112d057508173ffffffffffffffffffffffffffffffffffffffff1663e985e9c582306040518363ffffffff1660e01b815260040161127f929190612cb2565b60206040518083038186803b15801561129757600080fd5b505afa1580156112ab573d6000803e3d6000fd5b505050506040513d601f19601f820116820180604052508101906112cf91906123c5565b5b61130f576040517f08c379a000000000000000000000000000000000000000000000000000000000815260040161130690613060565b60405180910390fd5b60008511611352576040517f08c379a0000000000000000000000000000000000000000000000000000000008152600401611349906131a0565b60405180910390fd5b611366603c4261202190919063ffffffff16565b84116113a7576040517f08c379a000000000000000000000000000000000000000000000000000000000815260040161139e90612fa0565b60405180910390fd5b60004282888a896040516020016113c2959493929190612c38565b6040516020818303038152906040528051906020012090506040518060a001604052808281526020018373ffffffffffffffffffffffffffffffffffffffff1681526020018973ffffffffffffffffffffffffffffffffffffffff16815260200187815260200186815250600260008a73ffffffffffffffffffffffffffffffffffffffff1673ffffffffffffffffffffffffffffffffffffffff16815260200190815260200160002060008981526020019081526020016000206000820151816000015560208201518160010160006101000a81548173ffffffffffffffffffffffffffffffffffffffff021916908373ffffffffffffffffffffffffffffffffffffffff16021790555060408201518160020160006101000a81548173ffffffffffffffffffffffffffffffffffffffff021916908373ffffffffffffffffffffffffffffffffffffffff16021790555060608201518160030155608082015181600401559050508173ffffffffffffffffffffffffffffffffffffffff16877f84c66c3f7ba4b390e20e8e8233e2a516f3ce34a72749e4f12bd010dfba238039838b8a8a6040516115799493929190612e39565b60405180910390a35050505050505050565b60003073ffffffffffffffffffffffffffffffffffffffff163373ffffffffffffffffffffffffffffffffffffffff16141561163557600080368080601f016020809104026020016040519081016040528093929190818152602001838380828437600081840152601f19601f820116905080830192505050505050509050600080369050905073ffffffffffffffffffffffffffffffffffffffff818301511692505050611639565b3390505b90565b611644612037565b61164d85611eeb565b600061165761158b565b905060008690508073ffffffffffffffffffffffffffffffffffffffff166301ffc9a77f8f9f4b63fb27ea36c52c6e650320201c8f2c6d7c1dfa95f40f5d5da5239201686040518263ffffffff1660e01b81526004016116b79190612f08565b60206040518083038186803b1580156116cf57600080fd5b505afa1580156116e3573d6000803e3d6000fd5b505050506040513d601f19601f8201168201806040525081019061170791906123c5565b156117d7578073ffffffffffffffffffffffffffffffffffffffff16638f9f4b6387866040518363ffffffff1660e01b81526004016117479291906131fb565b60206040518083038186803b15801561175f57600080fd5b505afa158015611773573d6000803e3d6000fd5b505050506040513d601f19601f8201168201806040525081019061179791906123c5565b6117d6576040517f08c379a00000000000000000000000000000000000000000000000000000000081526004016117cd90613080565b60405180910390fd5b5b6000600260008973ffffffffffffffffffffffffffffffffffffffff1673ffffffffffffffffffffffffffffffffffffffff16815260200190815260200160002060008881526020019081526020016000206040518060a0016040529081600082015481526020016001820160009054906101000a900473ffffffffffffffffffffffffffffffffffffffff1673ffffffffffffffffffffffffffffffffffffffff1673ffffffffffffffffffffffffffffffffffffffff1681526020016002820160009054906101000a900473ffffffffffffffffffffffffffffffffffffffff1673ffffffffffffffffffffffffffffffffffffffff1673ffffffffffffffffffffffffffffffffffffffff1681526020016003820154815260200160048201548152505090506000801b8160000151141561194a576040517f08c379a0000000000000000000000000000000000000000000000000000000008152600401611941906130e0565b60405180910390fd5b600081602001519050600073ffffffffffffffffffffffffffffffffffffffff168173ffffffffffffffffffffffffffffffffffffffff1614156119c3576040517f08c379a00000000000000000000000000000000000000000000000000000000081526004016119ba90612f60565b60405180910390fd5b8373ffffffffffffffffffffffffffffffffffffffff168173ffffffffffffffffffffffffffffffffffffffff161415611a32576040517f08c379a0000000000000000000000000000000000000000000000000000000008152600401611a2990612fc0565b60405180910390fd5b86826060015114611a78576040517f08c379a0000000000000000000000000000000000000000000000000000000008152600401611a6f90613180565b60405180910390fd5b81608001514210611abe576040517f08c379a0000000000000000000000000000000000000000000000000000000008152600401611ab590613120565b60405180910390fd5b8273ffffffffffffffffffffffffffffffffffffffff16636352211e896040518263ffffffff1660e01b8152600401611af791906131e0565b60206040518083038186803b158015611b0f57600080fd5b505afa158015611b23573d6000803e3d6000fd5b505050506040513d601f19601f82011682018060405250810190611b4791906121a4565b73ffffffffffffffffffffffffffffffffffffffff168173ffffffffffffffffffffffffffffffffffffffff1614611bb4576040517f08c379a0000000000000000000000000000000000000000000000000000000008152600401611bab906131c0565b60405180910390fd5b600082600001519050600260008b73ffffffffffffffffffffffffffffffffffffffff1673ffffffffffffffffffffffffffffffffffffffff16815260200190815260200160002060008a81526020019081526020016000206000808201600090556001820160006101000a81549073ffffffffffffffffffffffffffffffffffffffff02191690556002820160006101000a81549073ffffffffffffffffffffffffffffffffffffffff0219169055600382016000905560048201600090555050600160009054906101000a900473ffffffffffffffffffffffffffffffffffffffff1673ffffffffffffffffffffffffffffffffffffffff166323b872dd86848b6040518463ffffffff1660e01b8152600401611cd593929190612d19565b602060405180830381600087803b158015611cef57600080fd5b505af1158015611d03573d6000803e3d6000fd5b505050506040513d601f19601f82011682018060405250810190611d2791906123c5565b611d66576040517f08c379a0000000000000000000000000000000000000000000000000000000008152600401611d5d90613160565b60405180910390fd5b8373ffffffffffffffffffffffffffffffffffffffff166342842e0e83878c6040518463ffffffff1660e01b8152600401611da393929190612d19565b600060405180830381600087803b158015611dbd57600080fd5b505af1158015611dd1573d6000803e3d6000fd5b505050508473ffffffffffffffffffffffffffffffffffffffff168273ffffffffffffffffffffffffffffffffffffffff168a7f695ec315e8a642a74d450a4505eeea53df699b47a7378c7d752e97d5b16eb9bb848e8d604051611e3793929190612e02565b60405180910390a48295505050505050949350505050565b600060405180608001604052806043815260200161353e604391398051906020012082600001518360200151846040015180519060200120604051602001611e9a9493929190612e7e565b604051602081830303815290604052805190602001209050919050565b600060035482604051602001611ece929190612c01565b604051602081830303815290604052805190602001209050919050565b611f0a8173ffffffffffffffffffffffffffffffffffffffff16610bed565b611f49576040517f08c379a0000000000000000000000000000000000000000000000000000000008152600401611f4090613100565b60405180910390fd5b60008190508073ffffffffffffffffffffffffffffffffffffffff166301ffc9a76380ac58cd60e01b6040518263ffffffff1660e01b8152600401611f8e9190612f08565b60206040518083038186803b158015611fa657600080fd5b505afa158015611fba573d6000803e3d6000fd5b505050506040513d601f19601f82011682018060405250810190611fde91906123c5565b61201d576040517f08c379a000000000000000000000000000000000000000000000000000000000815260040161201490612fe0565b60405180910390fd5b5050565b6000818361202f91906132cf565b905092915050565b6040518060a0016040528060008019168152602001600073ffffffffffffffffffffffffffffffffffffffff168152602001600073ffffffffffffffffffffffffffffffffffffffff16815260200160008152602001600081525090565b60006120a86120a38461325c565b61322b565b9050828152602081018484840111156120c057600080fd5b6120cb8482856133d4565b509392505050565b6000813590506120e2816134ca565b92915050565b6000815190506120f7816134ca565b92915050565b60008151905061210c816134e1565b92915050565b600081359050612121816134f8565b92915050565b600082601f83011261213857600080fd5b8135612148848260208601612095565b91505092915050565b6000813590506121608161350f565b92915050565b60008135905061217581613526565b92915050565b60006020828403121561218d57600080fd5b600061219b848285016120d3565b91505092915050565b6000602082840312156121b657600080fd5b60006121c4848285016120e8565b91505092915050565b600080600080600060a086880312156121e557600080fd5b60006121f3888289016120d3565b955050602086013567ffffffffffffffff81111561221057600080fd5b61221c88828901612127565b945050604061222d88828901612112565b935050606061223e88828901612112565b925050608061224f88828901612166565b9150509295509295909350565b6000806040838503121561226f57600080fd5b600061227d858286016120d3565b925050602061228e85828601612151565b9150509250929050565b6000806000606084860312156122ad57600080fd5b60006122bb868287016120d3565b93505060206122cc86828701612151565b92505060406122dd86828701612151565b9150509250925092565b600080600080608085870312156122fd57600080fd5b600061230b878288016120d3565b945050602061231c87828801612151565b935050604061232d87828801612151565b925050606085013567ffffffffffffffff81111561234a57600080fd5b61235687828801612127565b91505092959194509250565b6000806000806080858703121561237857600080fd5b6000612386878288016120d3565b945050602061239787828801612151565b93505060406123a887828801612151565b92505060606123b987828801612151565b91505092959194509250565b6000602082840312156123d757600080fd5b60006123e5848285016120fd565b91505092915050565b6123f781613325565b82525050565b61240e61240982613325565b613416565b82525050565b61241d81613337565b82525050565b61242c81613343565b82525050565b61244361243e82613343565b613428565b82525050565b6124528161334d565b82525050565b60006124638261328c565b61246d8185613297565b935061247d8185602086016133e3565b612486816134ac565b840191505092915050565b600061249c8261328c565b6124a681856132a8565b93506124b68185602086016133e3565b80840191505092915050565b6124cb816133b0565b82525050565b60006124de600f836132b3565b91507f496e76616c6964206164647265737300000000000000000000000000000000006000830152602082019050919050565b600061251e6026836132b3565b91507f4f776e61626c653a206e6577206f776e657220697320746865207a65726f206160008301527f64647265737300000000000000000000000000000000000000000000000000006020830152604082019050919050565b60006125846036836132b3565b91507f5075626c69636174696f6e2073686f756c64206265206d6f7265207468616e2060008301527f31206d696e75746520696e2074686520667574757265000000000000000000006020830152604082019050919050565b60006125ea6011836132b3565b91507f556e617574686f72697a656420757365720000000000000000000000000000006000830152602082019050919050565b600061262a6002836132c4565b91507f19010000000000000000000000000000000000000000000000000000000000006000830152600282019050919050565b600061266a6035836132b3565b91507f546865204e465420636f6e74726163742068617320616e20696e76616c69642060008301527f45524337323120696d706c656d656e746174696f6e00000000000000000000006020830152604082019050919050565b60006126d0603d836132b3565b91507f4e4d5423657865637574654d6574615472616e73616374696f6e3a205349474e60008301527f45525f414e445f5349474e41545552455f444f5f4e4f545f4d415443480000006020830152604082019050919050565b60006127366020836132b3565b91507f4f6e6c7920746865206f776e65722063616e20637265617465206f72646572736000830152602082019050919050565b60006127766010836132b3565b91507f5061757361626c653a20706175736564000000000000000000000000000000006000830152602082019050919050565b60006127b66032836132b3565b91507f54686520636f6e7472616374206973206e6f7420617574686f72697a6564207460008301527f6f206d616e6167652074686520617373657400000000000000000000000000006020830152604082019050919050565b600061281c6022836132b3565b91507f5468652061737365742066696e6765727072696e74206973206e6f742076616c60008301527f69640000000000000000000000000000000000000000000000000000000000006020830152604082019050919050565b60006128826027836132b3565b91507f4e4d5423657865637574654d6574615472616e73616374696f6e3a2043414c4c60008301527f5f4641494c4544000000000000000000000000000000000000000000000000006020830152604082019050919050565b60006128e86020836132b3565b91507f4f776e61626c653a2063616c6c6572206973206e6f7420746865206f776e65726000830152602082019050919050565b60006129286013836132b3565b91507f4173736574206e6f74207075626c6973686564000000000000000000000000006000830152602082019050919050565b60006129686024836132b3565b91507f546865204e465420416464726573732073686f756c64206265206120636f6e7460008301527f72616374000000000000000000000000000000000000000000000000000000006020830152604082019050919050565b60006129ce6011836132b3565b91507f546865206f7264657220657870697265640000000000000000000000000000006000830152602082019050919050565b6000612a0e601a836132b3565b91507f4e4d54237665726966793a20494e56414c49445f5349474e45520000000000006000830152602082019050919050565b6000612a4e6030836132b3565b91507f5472616e73666572696e67207468652073616c6520616d6f756e7420746f207460008301527f68652073656c6c6572206661696c6564000000000000000000000000000000006020830152604082019050919050565b6000612ab46018836132b3565b91507f546865207072696365206973206e6f7420636f727265637400000000000000006000830152602082019050919050565b6000612af4601d836132b3565b91507f50726963652073686f756c6420626520626967676572207468616e20300000006000830152602082019050919050565b6000612b346021836132b3565b91507f5468652073656c6c6572206973206e6f206c6f6e67657220746865206f776e6560008301527f72000000000000000000000000000000000000000000000000000000000000006020830152604082019050919050565b612b9681613399565b82525050565b612bad612ba882613399565b613444565b82525050565b612bbc816133a3565b82525050565b6000612bce8284612491565b915081905092915050565b6000612be58285612491565b9150612bf182846123fd565b6014820191508190509392505050565b6000612c0c8261261d565b9150612c188285612432565b602082019150612c288284612432565b6020820191508190509392505050565b6000612c448288612b9c565b602082019150612c5482876123fd565b601482019150612c648286612b9c565b602082019150612c7482856123fd565b601482019150612c848284612b9c565b6020820191508190509695505050505050565b6000602082019050612cac60008301846123ee565b92915050565b6000604082019050612cc760008301856123ee565b612cd460208301846123ee565b9392505050565b6000606082019050612cf060008301866123ee565b612cfd60208301856123ee565b8181036040830152612d0f8184612458565b9050949350505050565b6000606082019050612d2e60008301866123ee565b612d3b60208301856123ee565b612d486040830184612b8d565b949350505050565b6000602082019050612d656000830184612414565b92915050565b6000602082019050612d806000830184612423565b92915050565b6000604082019050612d9b6000830185612423565b612da860208301846123ee565b9392505050565b600060a082019050612dc46000830188612423565b612dd160208301876123ee565b612dde60408301866123ee565b612deb6060830185612b8d565b612df86080830184612b8d565b9695505050505050565b6000606082019050612e176000830186612423565b612e2460208301856123ee565b612e316040830184612b8d565b949350505050565b6000608082019050612e4e6000830187612423565b612e5b60208301866123ee565b612e686040830185612b8d565b612e756060830184612b8d565b95945050505050565b6000608082019050612e936000830187612423565b612ea06020830186612b8d565b612ead60408301856123ee565b612eba6060830184612423565b95945050505050565b6000608082019050612ed86000830187612423565b612ee56020830186612bb3565b612ef26040830185612423565b612eff6060830184612423565b95945050505050565b6000602082019050612f1d6000830184612449565b92915050565b60006020820190508181036000830152612f3d8184612458565b905092915050565b6000602082019050612f5a60008301846124c2565b92915050565b60006020820190508181036000830152612f79816124d1565b9050919050565b60006020820190508181036000830152612f9981612511565b9050919050565b60006020820190508181036000830152612fb981612577565b9050919050565b60006020820190508181036000830152612fd9816125dd565b9050919050565b60006020820190508181036000830152612ff98161265d565b9050919050565b60006020820190508181036000830152613019816126c3565b9050919050565b6000602082019050818103600083015261303981612729565b9050919050565b6000602082019050818103600083015261305981612769565b9050919050565b60006020820190508181036000830152613079816127a9565b9050919050565b600060208201905081810360008301526130998161280f565b9050919050565b600060208201905081810360008301526130b981612875565b9050919050565b600060208201905081810360008301526130d9816128db565b9050919050565b600060208201905081810360008301526130f98161291b565b9050919050565b600060208201905081810360008301526131198161295b565b9050919050565b60006020820190508181036000830152613139816129c1565b9050919050565b6000602082019050818103600083015261315981612a01565b9050919050565b6000602082019050818103600083015261317981612a41565b9050919050565b6000602082019050818103600083015261319981612aa7565b9050919050565b600060208201905081810360008301526131b981612ae7565b9050919050565b600060208201905081810360008301526131d981612b27565b9050919050565b60006020820190506131f56000830184612b8d565b92915050565b60006040820190506132106000830185612b8d565b81810360208301526132228184612458565b90509392505050565b6000604051905081810181811067ffffffffffffffff821117156132525761325161347d565b5b8060405250919050565b600067ffffffffffffffff8211156132775761327661347d565b5b601f19601f8301169050602081019050919050565b600081519050919050565b600082825260208201905092915050565b600081905092915050565b600082825260208201905092915050565b600081905092915050565b60006132da82613399565b91506132e583613399565b9250827fffffffffffffffffffffffffffffffffffffffffffffffffffffffffffffffff0382111561331a5761331961344e565b5b828201905092915050565b600061333082613379565b9050919050565b60008115159050919050565b6000819050919050565b60007fffffffff0000000000000000000000000000000000000000000000000000000082169050919050565b600073ffffffffffffffffffffffffffffffffffffffff82169050919050565b6000819050919050565b600060ff82169050919050565b60006133bb826133c2565b9050919050565b60006133cd82613379565b9050919050565b82818337600083830152505050565b60005b838110156134015780820151818401526020810190506133e6565b83811115613410576000848401525b50505050565b600061342182613432565b9050919050565b6000819050919050565b600061343d826134bd565b9050919050565b6000819050919050565b7f4e487b7100000000000000000000000000000000000000000000000000000000600052601160045260246000fd5b7f4e487b7100000000000000000000000000000000000000000000000000000000600052604160045260246000fd5b6000601f19601f8301169050919050565b60008160601b9050919050565b6134d381613325565b81146134de57600080fd5b50565b6134ea81613337565b81146134f557600080fd5b50565b61350181613343565b811461350c57600080fd5b50565b61351881613399565b811461352357600080fd5b50565b61352f816133a3565b811461353a57600080fd5b5056fe4d6574615472616e73616374696f6e2875696e74323536206e6f6e63652c616464726573732066726f6d2c62797465732066756e6374696f6e5369676e617475726529a264697066735822122096e77d43cb7213a0bb5819d0e2e7e8061f347bc3c08043d0c22534da3a866e7664736f6c63430008000033454950373132446f6d61696e28737472696e67206e616d652c737472696e672076657273696f6e2c6164647265737320766572696679696e67436f6e74726163742c627974657333322073616c7429",
  "immutableReferences": {},
  "source": "// SPDX-License-Identifier: MIT\r\npragma solidity ^0.8.0;\r\n\r\nimport \"@openzeppelin/contracts/utils/math/SafeMath.sol\";\r\nimport \"@openzeppelin/contracts/utils/Address.sol\";\r\nimport \"@openzeppelin/contracts/token/ERC721/IERC721.sol\";\r\n\r\nimport \"./QrollectibleStorage.sol\";\r\nimport \"./helpers/Ownable.sol\";\r\nimport \"./helpers/Pausable.sol\";\r\nimport \"./helpers/ContextMixin.sol\";\r\nimport \"./helpers/NativeMetaTransaction.sol\";\r\n\r\n\r\ncontract TaroNFTMarketplace is Ownable, Pausable, QrollectibleStorage, NativeMetaTransaction \r\n{\r\n  using SafeMath for uint256;\r\n  using Address for address;\r\n\r\n    /**\r\n    * @dev Initialize this contract. Acts as a constructor\r\n    * @param _acceptedToken - Address of the ERC20 accepted for this marketplace\r\n    */\r\n\t  constructor (address _acceptedToken, address _owner)\r\n\t    public\r\n\t  {\r\n\t    // EIP712 init\r\n\t    _initializeEIP712('Qrollectibles NFT Marketplace', '1');\r\n\r\n\t    require(_owner != address(0), \"Invalid owner\");\r\n\t    transferOwnership(_owner);\r\n\r\n\t    require(_acceptedToken.isContract(), \"The accepted token address must be a deployed contract\");\r\n\t    acceptedToken = ERC20Interface(_acceptedToken);\r\n\t  }\r\n\r\n\t struct Item\r\n\t {\r\n        uint256 id;\r\n        address tokenAddress;\r\n        uint256 tokenId;\r\n        address payable seller;\r\n        uint256 askingPrice;\r\n        uint256 expiresAt;\r\n   \t }\r\n\r\n   \t \r\n   \t function createOrder(address tokenAddress, uint256 tokenId, uint256 askingPrice, uint256 expiresAt) public whenNotPaused\r\n   \t {\r\n   \t \t_createOrder(tokenAddress, tokenId, askingPrice, expiresAt);\r\n   \t }\r\n\r\n   \t function cancelOrder(address tokenAddress, uint256 tokenId) public whenNotPaused \r\n   \t {\r\n    \t_cancelOrder(tokenAddress, tokenId);\r\n  \t }\r\n\r\n  \t function safeExecuteOrder(address tokenAddress, uint256 tokenId, uint256 price, bytes memory fingerprint) public whenNotPaused\r\n  \t {\r\n    \t_executeOrder(tokenAddress, tokenId, price, fingerprint);\r\n     }\r\n\r\n  \t function executeOrder(address tokenAddress, uint256 tokenId, uint256 price) public whenNotPaused\r\n  \t {\r\n    \t_executeOrder(tokenAddress, tokenId, price, \"\");\r\n     }\r\n\r\n\r\n    function _createOrder(address tokenAddress, uint256 tokenId, uint256 price, uint256 expiresAt) internal  \r\n    {\r\n    \t_requireERC721(tokenAddress);\r\n\r\n    \taddress sender = _msgSender();\r\n\r\n    \tERC721Interface nftRegistry = ERC721Interface(tokenAddress);\r\n    \taddress assetOwner = nftRegistry.ownerOf(tokenId);\r\n\r\n\t    require(sender == assetOwner, \"Only the owner can create orders\");\r\n\t    require\r\n\t    (\r\n\t      nftRegistry.getApproved(tokenId) == address(this) || nftRegistry.isApprovedForAll(assetOwner, address(this)),\r\n\t      \"The contract is not authorized to manage the asset\"\r\n\t    );\r\n\t    \r\n\t    require(price > 0, \"Price should be bigger than 0\");\r\n\t    require(expiresAt > block.timestamp.add(1 minutes), \"Publication should be more than 1 minute in the future\");\r\n\r\n\t    bytes32 orderId = keccak256(\r\n\t      abi.encodePacked(\r\n\t        block.timestamp,\r\n\t        assetOwner,\r\n\t        tokenId,\r\n\t        tokenAddress,\r\n\t        price\r\n\t      )\r\n\t    );\r\n\r\n\t    orderByAssetId[tokenAddress][tokenId] = Order({\r\n\t      id: orderId,\r\n\t      seller: assetOwner,\r\n\t      tokenAddress: tokenAddress,\r\n\t      price: price,\r\n\t      expiresAt: expiresAt\r\n\t    });\r\n\r\n\r\n\t    emit OrderCreated(orderId, tokenId, assetOwner, tokenAddress, price, expiresAt);\r\n\t  }\r\n\r\n\r\n\t  function _cancelOrder(address tokenAddress, uint256 tokenId) internal returns (Order memory) {\r\n    address sender = _msgSender();\r\n    Order memory order = orderByAssetId[tokenAddress][tokenId];\r\n\r\n    require(order.id != 0, \"Asset not published\");\r\n    require(order.seller == sender || sender == owner(), \"Unauthorized user\");\r\n\r\n    bytes32 orderId = order.id;\r\n    address orderSeller = order.seller;\r\n    address ordertokenAddress = order.tokenAddress;\r\n    delete orderByAssetId[tokenAddress][tokenId];\r\n\r\n    emit OrderCancelled(\r\n      orderId,\r\n      tokenId,\r\n      orderSeller,\r\n      ordertokenAddress\r\n    );\r\n\r\n    return order;\r\n  }\r\n\r\n   function _executeOrder(address tokenAddress, uint256 tokenId, uint256 price, bytes memory fingerprint) internal returns (Order memory)\r\n   {\r\n    _requireERC721(tokenAddress);\r\n\r\n    address sender = _msgSender();\r\n\r\n    ERC721Verifiable nftRegistry = ERC721Verifiable(tokenAddress);\r\n\r\n    if (nftRegistry.supportsInterface(InterfaceId_ValidateFingerprint)) {\r\n      require(\r\n        nftRegistry.verifyFingerprint(tokenId, fingerprint),\r\n        \"The asset fingerprint is not valid\"\r\n      );\r\n    }\r\n    Order memory order = orderByAssetId[tokenAddress][tokenId];\r\n\r\n    require(order.id != 0, \"Asset not published\");\r\n\r\n    address seller = order.seller;\r\n\r\n    require(seller != address(0), \"Invalid address\");\r\n    require(seller != sender, \"Unauthorized user\");\r\n    require(order.price == price, \"The price is not correct\");\r\n    require(block.timestamp < order.expiresAt, \"The order expired\");\r\n    require(seller == nftRegistry.ownerOf(tokenId), \"The seller is no longer the owner\");\r\n\r\n\r\n    bytes32 orderId = order.id;\r\n    delete orderByAssetId[tokenAddress][tokenId];\r\n\r\n \r\n    \r\n\r\n    // Transfer sale amount to seller\r\n    require(\r\n      acceptedToken.transferFrom(sender, seller, price),\r\n      \"Transfering the sale amount to the seller failed\"\r\n    );\r\n\r\n    // Transfer asset owner\r\n    nftRegistry.safeTransferFrom(\r\n      seller,\r\n      sender,\r\n      tokenId\r\n    );\r\n\r\n    emit OrderSuccessful(\r\n      orderId,\r\n      tokenId,\r\n      seller,\r\n      tokenAddress,\r\n      price,\r\n      sender\r\n    );\r\n\r\n    return order;\r\n  }\r\n\r\n\tfunction _requireERC721(address tokenAddress) internal view {\r\n    require(tokenAddress.isContract(), \"The NFT Address should be a contract\");\r\n\r\n    ERC721Interface nftRegistry = ERC721Interface(tokenAddress);\r\n    require(\r\n      nftRegistry.supportsInterface(ERC721_Interface),\r\n      \"The NFT contract has an invalid ERC721 implementation\"\r\n    );\r\n  }  \r\n\r\n}\t  \r\n\r\n\r\n\r\n",
  "sourcePath": "D:/Blockchain Programming/QrollectiblesMain/frontend/packages/contracts/contracts/TaroNFTMarketplace.sol",
  "compiler": {
    "name": "solc",
    "version": "0.8.0+commit.c7dfd78e.Emscripten.clang"
  },
  "schemaVersion": "3.4.1",
  "updatedAt": "2021-10-10T05:48:21.404Z",
  "networkType": "ethereum",
  "devdoc": {
    "kind": "dev",
    "methods": {
      "constructor": {
        "details": "Initialize this contract. Acts as a constructor",
        "params": {
          "_acceptedToken": "- Address of the ERC20 accepted for this marketplace"
        }
      },
      "owner()": {
        "details": "Returns the address of the current owner."
      },
      "paused()": {
        "details": "Returns true if the contract is paused, and false otherwise."
      },
      "renounceOwnership()": {
        "details": "Leaves the contract without owner. It will not be possible to call `onlyOwner` functions anymore. Can only be called by the current owner. NOTE: Renouncing ownership will leave the contract without an owner, thereby removing any functionality that is only available to the owner."
      },
      "transferOwnership(address)": {
        "details": "Transfers ownership of the contract to a new account (`newOwner`). Can only be called by the current owner."
      }
    },
    "version": 1
  },
  "userdoc": {
    "kind": "user",
    "methods": {},
    "version": 1
  }
}